{
  "contractName": "Marketplace",
  "abi": [
    {
      "inputs": [],
      "stateMutability": "nonpayable",
      "type": "constructor"
    },
    {
      "anonymous": false,
      "inputs": [
        {
          "indexed": false,
          "internalType": "uint256",
          "name": "resourceId",
          "type": "uint256"
        },
        {
          "indexed": false,
          "internalType": "address",
          "name": "renter",
          "type": "address"
        }
      ],
      "name": "RentCancelled",
      "type": "event"
    },
    {
      "anonymous": false,
      "inputs": [
        {
          "indexed": false,
          "internalType": "uint256",
          "name": "resourceId",
          "type": "uint256"
        },
        {
          "indexed": false,
          "internalType": "uint256",
          "name": "price",
          "type": "uint256"
        },
        {
          "indexed": false,
          "internalType": "address",
          "name": "owner",
          "type": "address"
        }
      ],
      "name": "ResourceChanged",
      "type": "event"
    },
    {
      "anonymous": false,
      "inputs": [
        {
          "indexed": false,
          "internalType": "uint256",
          "name": "resourceId",
          "type": "uint256"
        },
        {
          "indexed": false,
          "internalType": "uint256",
          "name": "price",
          "type": "uint256"
        },
        {
          "indexed": false,
          "internalType": "address",
          "name": "owner",
          "type": "address"
        }
      ],
      "name": "ResourceCreated",
      "type": "event"
    },
    {
      "anonymous": false,
      "inputs": [
        {
          "indexed": false,
          "internalType": "uint256",
          "name": "resourceId",
          "type": "uint256"
        },
        {
          "indexed": false,
          "internalType": "uint256",
          "name": "price",
          "type": "uint256"
        },
        {
          "indexed": false,
          "internalType": "address",
          "name": "owner",
          "type": "address"
        }
      ],
      "name": "ResourceDeleted",
      "type": "event"
    },
    {
      "anonymous": false,
      "inputs": [
        {
          "indexed": false,
          "internalType": "uint256",
          "name": "resourceId",
          "type": "uint256"
        },
        {
          "indexed": false,
          "internalType": "uint256",
          "name": "price",
          "type": "uint256"
        },
        {
          "indexed": false,
          "internalType": "address",
          "name": "renter",
          "type": "address"
        }
      ],
      "name": "ResourceRented",
      "type": "event"
    },
    {
      "inputs": [
        {
          "internalType": "uint256",
          "name": "",
          "type": "uint256"
        }
      ],
      "name": "cpus",
      "outputs": [
        {
          "internalType": "string",
          "name": "name",
          "type": "string"
        },
        {
          "internalType": "uint64",
          "name": "frequency",
          "type": "uint64"
        },
        {
          "internalType": "uint16",
          "name": "coreNum",
          "type": "uint16"
        }
      ],
      "stateMutability": "view",
      "type": "function",
      "constant": true
    },
    {
      "inputs": [
        {
          "internalType": "uint256",
          "name": "",
          "type": "uint256"
        }
      ],
      "name": "gpus",
      "outputs": [
        {
          "internalType": "string",
          "name": "name",
          "type": "string"
        },
        {
          "internalType": "uint64",
          "name": "frequency",
          "type": "uint64"
        },
        {
          "internalType": "uint16",
          "name": "memorySize",
          "type": "uint16"
        }
      ],
      "stateMutability": "view",
      "type": "function",
      "constant": true
    },
    {
      "inputs": [
        {
          "internalType": "address",
          "name": "",
          "type": "address"
        },
        {
          "internalType": "uint256",
          "name": "",
          "type": "uint256"
        }
      ],
      "name": "ownersResources",
      "outputs": [
        {
          "internalType": "uint256",
          "name": "",
          "type": "uint256"
        }
      ],
      "stateMutability": "view",
      "type": "function",
      "constant": true
    },
    {
      "inputs": [
        {
          "internalType": "address",
          "name": "",
          "type": "address"
        },
        {
          "internalType": "uint256",
          "name": "",
          "type": "uint256"
        }
      ],
      "name": "rentersResources",
      "outputs": [
        {
          "internalType": "uint256",
          "name": "",
          "type": "uint256"
        }
      ],
      "stateMutability": "view",
      "type": "function",
      "constant": true
    },
    {
      "inputs": [
        {
          "internalType": "uint256",
          "name": "",
          "type": "uint256"
        }
      ],
      "name": "resourceIds",
      "outputs": [
        {
          "internalType": "uint256",
          "name": "",
          "type": "uint256"
        }
      ],
      "stateMutability": "view",
      "type": "function",
      "constant": true
    },
    {
      "inputs": [
        {
          "internalType": "uint256",
          "name": "",
          "type": "uint256"
        }
      ],
      "name": "resources",
      "outputs": [
        {
          "internalType": "uint256",
          "name": "cpuId",
          "type": "uint256"
        },
        {
          "internalType": "uint256",
          "name": "gpuId",
          "type": "uint256"
        },
        {
          "internalType": "uint16",
          "name": "ramSize",
          "type": "uint16"
        },
        {
          "internalType": "string",
          "name": "storageType",
          "type": "string"
        },
        {
          "internalType": "uint16",
          "name": "storageSize",
          "type": "uint16"
        },
        {
          "internalType": "uint256",
          "name": "price",
          "type": "uint256"
        },
        {
          "internalType": "address",
          "name": "renter",
          "type": "address"
        },
        {
          "internalType": "address",
          "name": "owner",
          "type": "address"
        }
      ],
      "stateMutability": "view",
      "type": "function",
      "constant": true
    },
    {
      "inputs": [],
      "name": "resourcesCount",
      "outputs": [
        {
          "internalType": "uint256",
          "name": "",
          "type": "uint256"
        }
      ],
      "stateMutability": "view",
      "type": "function",
      "constant": true
    },
    {
      "inputs": [
        {
          "internalType": "uint256",
          "name": "cpuId_",
          "type": "uint256"
        },
        {
          "internalType": "uint256",
          "name": "gpuId_",
          "type": "uint256"
        },
        {
          "internalType": "uint16",
          "name": "ramSize_",
          "type": "uint16"
        },
        {
          "internalType": "string",
          "name": "storageType_",
          "type": "string"
        },
        {
          "internalType": "uint16",
          "name": "storageSize_",
          "type": "uint16"
        },
        {
          "internalType": "uint256",
          "name": "price_",
          "type": "uint256"
        }
      ],
      "name": "createResource",
      "outputs": [],
      "stateMutability": "nonpayable",
      "type": "function"
    },
    {
      "inputs": [
        {
          "internalType": "uint256",
          "name": "resourceId_",
          "type": "uint256"
        },
        {
          "internalType": "uint256",
          "name": "cpuId_",
          "type": "uint256"
        },
        {
          "internalType": "uint256",
          "name": "gpuId_",
          "type": "uint256"
        },
        {
          "internalType": "uint16",
          "name": "ramSize_",
          "type": "uint16"
        },
        {
          "internalType": "string",
          "name": "storageType_",
          "type": "string"
        },
        {
          "internalType": "uint16",
          "name": "storageSize_",
          "type": "uint16"
        },
        {
          "internalType": "uint256",
          "name": "price_",
          "type": "uint256"
        }
      ],
      "name": "changeResource",
      "outputs": [],
      "stateMutability": "nonpayable",
      "type": "function"
    },
    {
      "inputs": [
        {
          "internalType": "uint256",
          "name": "resourceId_",
          "type": "uint256"
        }
      ],
      "name": "deleteResource",
      "outputs": [],
      "stateMutability": "nonpayable",
      "type": "function"
    },
    {
      "inputs": [
        {
          "internalType": "uint256",
          "name": "resourceId_",
          "type": "uint256"
        }
      ],
      "name": "getResource",
      "outputs": [
        {
          "internalType": "uint256",
          "name": "cpuId",
          "type": "uint256"
        },
        {
          "internalType": "uint256",
          "name": "gpuId",
          "type": "uint256"
        },
        {
          "internalType": "uint16",
          "name": "ramSize",
          "type": "uint16"
        },
        {
          "internalType": "string",
          "name": "storageType",
          "type": "string"
        },
        {
          "internalType": "uint16",
          "name": "storageSize",
          "type": "uint16"
        },
        {
          "internalType": "uint256",
          "name": "price_",
          "type": "uint256"
        },
        {
          "internalType": "address",
          "name": "renter",
          "type": "address"
        },
        {
          "internalType": "address",
          "name": "owner",
          "type": "address"
        }
      ],
      "stateMutability": "view",
      "type": "function",
      "constant": true
    },
    {
      "inputs": [],
      "name": "getResourceIds",
      "outputs": [
        {
          "internalType": "uint256[]",
          "name": "",
          "type": "uint256[]"
        }
      ],
      "stateMutability": "view",
      "type": "function",
      "constant": true
    },
    {
      "inputs": [],
      "name": "getResourceNum",
      "outputs": [
        {
          "internalType": "uint256",
          "name": "",
          "type": "uint256"
        }
      ],
      "stateMutability": "view",
      "type": "function",
      "constant": true
    },
    {
      "inputs": [
        {
          "internalType": "uint256",
          "name": "resourceId_",
          "type": "uint256"
        }
      ],
      "name": "rentResource",
      "outputs": [],
      "stateMutability": "payable",
      "type": "function",
      "payable": true
    },
    {
      "inputs": [
        {
          "internalType": "uint256",
          "name": "resourceId_",
          "type": "uint256"
        }
      ],
      "name": "cancelRent",
      "outputs": [],
      "stateMutability": "nonpayable",
      "type": "function"
    }
  ],
  "bytecode": "0x6080604052600080553480156200001557600080fd5b50600360405180606001604052806040518060400160405280601481526020017f496e74656c20436f72652069392d31313930304b000000000000000000000000815250815260200163d09dc30067ffffffffffffffff168152602001600861ffff1681525090806001815401808255809150506001900390600052602060002090600202016000909190919091506000820151816000019080519060200190620000c292919062000a2b565b5060208201518160010160006101000a81548167ffffffffffffffff021916908367ffffffffffffffff16021790555060408201518160010160086101000a81548161ffff021916908361ffff1602179055505050600360405180606001604052806040518060400160405280601181526020017f414d442052797a656e2039203539303058000000000000000000000000000000815250815260200163dc89850067ffffffffffffffff168152602001600c61ffff1681525090806001815401808255809150506001900390600052602060002090600202016000909190919091506000820151816000019080519060200190620001c392919062000a2b565b5060208201518160010160006101000a81548167ffffffffffffffff021916908367ffffffffffffffff16021790555060408201518160010160086101000a81548161ffff021916908361ffff1602179055505050600360405180606001604052806040518060400160405280601481526020017f496e74656c20436f72652069372d31313730304b000000000000000000000000815250815260200163d693a40067ffffffffffffffff168152602001600861ffff1681525090806001815401808255809150506001900390600052602060002090600202016000909190919091506000820151816000019080519060200190620002c492919062000a2b565b5060208201518160010160006101000a81548167ffffffffffffffff021916908367ffffffffffffffff16021790555060408201518160010160086101000a81548161ffff021916908361ffff1602179055505050600360405180606001604052806040518060400160405280601181526020017f414d442052797a656e2037203538303058000000000000000000000000000000815250815260200163e27f660067ffffffffffffffff168152602001600861ffff1681525090806001815401808255809150506001900390600052602060002090600202016000909190919091506000820151816000019080519060200190620003c592919062000a2b565b5060208201518160010160006101000a81548167ffffffffffffffff021916908367ffffffffffffffff16021790555060408201518160010160086101000a81548161ffff021916908361ffff1602179055505050600360405180606001604052806040518060400160405280600c81526020017f4170706c65204d31204d61780000000000000000000000000000000000000000815250815260200163bebc200067ffffffffffffffff168152602001600a61ffff1681525090806001815401808255809150506001900390600052602060002090600202016000909190919091506000820151816000019080519060200190620004c692919062000a2b565b5060208201518160010160006101000a81548167ffffffffffffffff021916908367ffffffffffffffff16021790555060408201518160010160086101000a81548161ffff021916908361ffff1602179055505050600460405180606001604052806040518060400160405280600f81526020017f4e5649444941205254582033303930000000000000000000000000000000000081525081526020016353724e0067ffffffffffffffff168152602001615dc061ffff1681525090806001815401808255809150506001900390600052602060002090600202016000909190919091506000820151816000019080519060200190620005c892919062000a2b565b5060208201518160010160006101000a81548167ffffffffffffffff021916908367ffffffffffffffff16021790555060408201518160010160086101000a81548161ffff021916908361ffff1602179055505050600460405180606001604052806040518060400160405280601581526020017f414d4420526164656f6e205258203639303020585400000000000000000000008152508152602001636cc74a4067ffffffffffffffff168152602001613e8061ffff1681525090806001815401808255809150506001900390600052602060002090600202016000909190919091506000820151816000019080519060200190620006ca92919062000a2b565b5060208201518160010160006101000a81548167ffffffffffffffff021916908367ffffffffffffffff16021790555060408201518160010160086101000a81548161ffff021916908361ffff1602179055505050600460405180606001604052806040518060400160405280600f81526020017f4e5649444941205254582033303830000000000000000000000000000000000081525081526020016365ec878067ffffffffffffffff16815260200161271061ffff1681525090806001815401808255809150506001900390600052602060002090600202016000909190919091506000820151816000019080519060200190620007cc92919062000a2b565b5060208201518160010160006101000a81548167ffffffffffffffff021916908367ffffffffffffffff16021790555060408201518160010160086101000a81548161ffff021916908361ffff1602179055505050600460405180606001604052806040518060400160405280601581526020017f414d4420526164656f6e20525820363830302058540000000000000000000000815250815260200163781a75c067ffffffffffffffff168152602001613e8061ffff1681525090806001815401808255809150506001900390600052602060002090600202016000909190919091506000820151816000019080519060200190620008ce92919062000a2b565b5060208201518160010160006101000a81548167ffffffffffffffff021916908367ffffffffffffffff16021790555060408201518160010160086101000a81548161ffff021916908361ffff1602179055505050600460405180606001604052806040518060400160405280600f81526020017f4e5649444941205254582033303730000000000000000000000000000000000081525081526020016359682f0067ffffffffffffffff168152602001611f4061ffff1681525090806001815401808255809150506001900390600052602060002090600202016000909190919091506000820151816000019080519060200190620009d092919062000a2b565b5060208201518160010160006101000a81548167ffffffffffffffff021916908367ffffffffffffffff16021790555060408201518160010160086101000a81548161ffff021916908361ffff160217905550505062000b40565b82805462000a399062000adb565b90600052602060002090601f01602090048101928262000a5d576000855562000aa9565b82601f1062000a7857805160ff191683800117855562000aa9565b8280016001018555821562000aa9579182015b8281111562000aa857825182559160200191906001019062000a8b565b5b50905062000ab8919062000abc565b5090565b5b8082111562000ad757600081600090555060010162000abd565b5090565b6000600282049050600182168062000af457607f821691505b6020821081141562000b0b5762000b0a62000b11565b5b50919050565b7f4e487b7100000000000000000000000000000000000000000000000000000000600052602260045260246000fd5b6127568062000b506000396000f3fe6080604052600436106100e85760003560e01c8063857529f11161008a5780639d2664b3116100595780639d2664b31461032d578063cd6a5d1714610358578063d2c2696314610381578063dff836e1146103c0576100e8565b8063857529f11461026e57806387e561a114610297578063915b4f1d146102d45780639746b4bf146102f0576100e8565b806351ac7b8c116100c657806351ac7b8c146101b457806362ca5458146101df57806372b965ab146102085780637b18200d14610245576100e8565b80631e8fca2d146100ed578063244d6daa1461013157806339b3667e14610175575b600080fd5b3480156100f957600080fd5b50610114600480360381019061010f9190611c18565b6103eb565b6040516101289897969594939291906123a8565b60405180910390f35b34801561013d57600080fd5b5061015860048036038101906101539190611c18565b6105e0565b60405161016c9897969594939291906123a8565b60405180910390f35b34801561018157600080fd5b5061019c60048036038101906101979190611c18565b61070c565b6040516101ab939291906121af565b60405180910390f35b3480156101c057600080fd5b506101c96107f0565b6040516101d6919061232d565b60405180910390f35b3480156101eb57600080fd5b5061020660048036038101906102019190611ce2565b6107f6565b005b34801561021457600080fd5b5061022f600480360381019061022a9190611bdc565b610bea565b60405161023c919061232d565b60405180910390f35b34801561025157600080fd5b5061026c60048036038101906102679190611c18565b610c1b565b005b34801561027a57600080fd5b5061029560048036038101906102909190611c18565b611013565b005b3480156102a357600080fd5b506102be60048036038101906102b99190611c18565b6111ef565b6040516102cb919061232d565b60405180910390f35b6102ee60048036038101906102e99190611c18565b611213565b005b3480156102fc57600080fd5b5061031760048036038101906103129190611bdc565b6115d1565b604051610324919061232d565b60405180910390f35b34801561033957600080fd5b50610342611602565b60405161034f919061232d565b60405180910390f35b34801561036457600080fd5b5061037f600480360381019061037a9190611c41565b61160f565b005b34801561038d57600080fd5b506103a860048036038101906103a39190611c18565b611916565b6040516103b7939291906121af565b60405180910390f35b3480156103cc57600080fd5b506103d56119fa565b6040516103e2919061218d565b60405180910390f35b60008060006060600080600080600073ffffffffffffffffffffffffffffffffffffffff16600160008b815260200190815260200160002060070160009054906101000a900473ffffffffffffffffffffffffffffffffffffffff1673ffffffffffffffffffffffffffffffffffffffff16141561049e576040517f08c379a00000000000000000000000000000000000000000000000000000000081526004016104959061220d565b60405180910390fd5b6000600160008b81526020019081526020016000209050806000015481600101548260020160009054906101000a900461ffff16836003018460040160009054906101000a900461ffff1685600501548660060160009054906101000a900473ffffffffffffffffffffffffffffffffffffffff168760070160009054906101000a900473ffffffffffffffffffffffffffffffffffffffff16848054610544906125c2565b80601f0160208091040260200160405190810160405280929190818152602001828054610570906125c2565b80156105bd5780601f10610592576101008083540402835291602001916105bd565b820191906000526020600020905b8154815290600101906020018083116105a057829003601f168201915b505050505094509850985098509850985098509850985050919395975091939597565b60016020528060005260406000206000915090508060000154908060010154908060020160009054906101000a900461ffff1690806003018054610623906125c2565b80601f016020809104026020016040519081016040528092919081815260200182805461064f906125c2565b801561069c5780601f106106715761010080835404028352916020019161069c565b820191906000526020600020905b81548152906001019060200180831161067f57829003601f168201915b5050505050908060040160009054906101000a900461ffff16908060050154908060060160009054906101000a900473ffffffffffffffffffffffffffffffffffffffff16908060070160009054906101000a900473ffffffffffffffffffffffffffffffffffffffff16905088565b6004818154811061071c57600080fd5b906000526020600020906002020160009150905080600001805461073f906125c2565b80601f016020809104026020016040519081016040528092919081815260200182805461076b906125c2565b80156107b85780601f1061078d576101008083540402835291602001916107b8565b820191906000526020600020905b81548152906001019060200180831161079b57829003601f168201915b5050505050908060010160009054906101000a900467ffffffffffffffff16908060010160089054906101000a900461ffff16905083565b60005481565b600073ffffffffffffffffffffffffffffffffffffffff166001600089815260200190815260200160002060070160009054906101000a900473ffffffffffffffffffffffffffffffffffffffff1673ffffffffffffffffffffffffffffffffffffffff16141561089c576040517f08c379a00000000000000000000000000000000000000000000000000000000081526004016108939061220d565b60405180910390fd5b600073ffffffffffffffffffffffffffffffffffffffff166001600089815260200190815260200160002060060160009054906101000a900473ffffffffffffffffffffffffffffffffffffffff1673ffffffffffffffffffffffffffffffffffffffff1614610941576040517f08c379a00000000000000000000000000000000000000000000000000000000081526004016109389061224d565b60405180910390fd5b60008111610984576040517f08c379a000000000000000000000000000000000000000000000000000000000815260040161097b9061226d565b60405180910390fd5b60038054905086106109cb576040517f08c379a00000000000000000000000000000000000000000000000000000000081526004016109c29061228d565b60405180910390fd5b6004805490508510610a12576040517f08c379a0000000000000000000000000000000000000000000000000000000008152600401610a099061230d565b60405180910390fd5b6040518061010001604052808781526020018681526020018561ffff1681526020018481526020018361ffff168152602001828152602001600073ffffffffffffffffffffffffffffffffffffffff1681526020013373ffffffffffffffffffffffffffffffffffffffff1681525060016000898152602001908152602001600020600082015181600001556020820151816001015560408201518160020160006101000a81548161ffff021916908361ffff1602179055506060820151816003019080519060200190610ae7929190611a52565b5060808201518160040160006101000a81548161ffff021916908361ffff16021790555060a0820151816005015560c08201518160060160006101000a81548173ffffffffffffffffffffffffffffffffffffffff021916908373ffffffffffffffffffffffffffffffffffffffff16021790555060e08201518160070160006101000a81548173ffffffffffffffffffffffffffffffffffffffff021916908373ffffffffffffffffffffffffffffffffffffffff1602179055509050507f39b5bb136f44e402b074bedc36e86ececf9c094eb6177ff2503fb91bee52b99c878233604051610bd993929190612371565b60405180910390a150505050505050565b60056020528160005260406000208181548110610c0657600080fd5b90600052602060002001600091509150505481565b600073ffffffffffffffffffffffffffffffffffffffff166001600083815260200190815260200160002060070160009054906101000a900473ffffffffffffffffffffffffffffffffffffffff1673ffffffffffffffffffffffffffffffffffffffff161415610cc1576040517f08c379a0000000000000000000000000000000000000000000000000000000008152600401610cb89061220d565b60405180910390fd5b600073ffffffffffffffffffffffffffffffffffffffff166001600083815260200190815260200160002060060160009054906101000a900473ffffffffffffffffffffffffffffffffffffffff1673ffffffffffffffffffffffffffffffffffffffff1614610d66576040517f08c379a0000000000000000000000000000000000000000000000000000000008152600401610d5d9061224d565b60405180910390fd5b60006001600083815260200190815260200160002060050154905060006001600084815260200190815260200160002060070160009054906101000a900473ffffffffffffffffffffffffffffffffffffffff1690506001600084815260200190815260200160002060008082016000905560018201600090556002820160006101000a81549061ffff0219169055600382016000610e059190611ad8565b6004820160006101000a81549061ffff021916905560058201600090556006820160006101000a81549073ffffffffffffffffffffffffffffffffffffffff02191690556007820160006101000a81549073ffffffffffffffffffffffffffffffffffffffff0219169055505060005b600280549050811015610fd2578360028281548110610ebd577f4e487b7100000000000000000000000000000000000000000000000000000000600052603260045260246000fd5b90600052602060002001541415610fbf5760026001600280549050610ee291906124ee565b81548110610f19577f4e487b7100000000000000000000000000000000000000000000000000000000600052603260045260246000fd5b906000526020600020015460028281548110610f5e577f4e487b7100000000000000000000000000000000000000000000000000000000600052603260045260246000fd5b90600052602060002001819055506002805480610fa4577f4e487b7100000000000000000000000000000000000000000000000000000000600052603160045260246000fd5b60019003818190600052602060002001600090559055610fd2565b8080610fca906125f4565b915050610e75565b507fe20fd39e4a1dc3198dc95e99fefa007c87f77982a1a34797dcce5f108cdb949a83838360405161100693929190612371565b60405180910390a1505050565b600073ffffffffffffffffffffffffffffffffffffffff166001600083815260200190815260200160002060070160009054906101000a900473ffffffffffffffffffffffffffffffffffffffff1673ffffffffffffffffffffffffffffffffffffffff1614156110b9576040517f08c379a00000000000000000000000000000000000000000000000000000000081526004016110b09061220d565b60405180910390fd5b3373ffffffffffffffffffffffffffffffffffffffff166001600083815260200190815260200160002060060160009054906101000a900473ffffffffffffffffffffffffffffffffffffffff1673ffffffffffffffffffffffffffffffffffffffff161461115d576040517f08c379a0000000000000000000000000000000000000000000000000000000008152600401611154906122cd565b60405180910390fd5b60006001600083815260200190815260200160002060060160006101000a81548173ffffffffffffffffffffffffffffffffffffffff021916908373ffffffffffffffffffffffffffffffffffffffff1602179055507fbfffc3b3bda31bc215106fb4e41a950c5dd58c268a6af8a7959b7a80e9f50e4e81336040516111e4929190612348565b60405180910390a150565b600281815481106111ff57600080fd5b906000526020600020016000915090505481565b600073ffffffffffffffffffffffffffffffffffffffff166001600083815260200190815260200160002060070160009054906101000a900473ffffffffffffffffffffffffffffffffffffffff1673ffffffffffffffffffffffffffffffffffffffff1614156112b9576040517f08c379a00000000000000000000000000000000000000000000000000000000081526004016112b09061220d565b60405180910390fd5b600073ffffffffffffffffffffffffffffffffffffffff166001600083815260200190815260200160002060060160009054906101000a900473ffffffffffffffffffffffffffffffffffffffff1673ffffffffffffffffffffffffffffffffffffffff161461135e576040517f08c379a0000000000000000000000000000000000000000000000000000000008152600401611355906121ed565b60405180910390fd5b3373ffffffffffffffffffffffffffffffffffffffff166001600083815260200190815260200160002060070160009054906101000a900473ffffffffffffffffffffffffffffffffffffffff1673ffffffffffffffffffffffffffffffffffffffff161415611403576040517f08c379a00000000000000000000000000000000000000000000000000000000081526004016113fa906122ed565b60405180910390fd5b3460016000838152602001908152602001600020600501541461145b576040517f08c379a00000000000000000000000000000000000000000000000000000000081526004016114529061222d565b60405180910390fd5b60006001600083815260200190815260200160002060070160009054906101000a900473ffffffffffffffffffffffffffffffffffffffff1673ffffffffffffffffffffffffffffffffffffffff16346040516114b790612178565b60006040518083038185875af1925050503d80600081146114f4576040519150601f19603f3d011682016040523d82523d6000602084013e6114f9565b606091505b505090508061153d576040517f08c379a0000000000000000000000000000000000000000000000000000000008152600401611534906122ad565b60405180910390fd5b336001600084815260200190815260200160002060060160006101000a81548173ffffffffffffffffffffffffffffffffffffffff021916908373ffffffffffffffffffffffffffffffffffffffff1602179055507f77949706cfdb3d261b222fb277ae94aea04606a6ba2aa12951228c70099b133f8234336040516115c593929190612371565b60405180910390a15050565b600660205281600052604060002081815481106115ed57600080fd5b90600052602060002001600091509150505481565b6000600280549050905090565b60008111611652576040517f08c379a00000000000000000000000000000000000000000000000000000000081526004016116499061226d565b60405180910390fd5b60008610158015611667575060038054905086105b6116a6576040517f08c379a000000000000000000000000000000000000000000000000000000000815260040161169d9061228d565b60405180910390fd5b600085101580156116bb575060048054905085105b6116fa576040517f08c379a00000000000000000000000000000000000000000000000000000000081526004016116f19061230d565b60405180910390fd5b6040518061010001604052808781526020018681526020018561ffff1681526020018481526020018361ffff168152602001828152602001600073ffffffffffffffffffffffffffffffffffffffff1681526020013373ffffffffffffffffffffffffffffffffffffffff168152506001600080548152602001908152602001600020600082015181600001556020820151816001015560408201518160020160006101000a81548161ffff021916908361ffff16021790555060608201518160030190805190602001906117d0929190611a52565b5060808201518160040160006101000a81548161ffff021916908361ffff16021790555060a0820151816005015560c08201518160060160006101000a81548173ffffffffffffffffffffffffffffffffffffffff021916908373ffffffffffffffffffffffffffffffffffffffff16021790555060e08201518160070160006101000a81548173ffffffffffffffffffffffffffffffffffffffff021916908373ffffffffffffffffffffffffffffffffffffffff160217905550905050600260005490806001815401808255809150506001900390600052602060002001600090919091909150557f28bd2a582004c7526b0f7f71caf12ed4596515e43b0bd35665c3e0be08adeecf60005482336040516118ef93929190612371565b60405180910390a1600080815480929190611909906125f4565b9190505550505050505050565b6003818154811061192657600080fd5b9060005260206000209060020201600091509050806000018054611949906125c2565b80601f0160208091040260200160405190810160405280929190818152602001828054611975906125c2565b80156119c25780601f10611997576101008083540402835291602001916119c2565b820191906000526020600020905b8154815290600101906020018083116119a557829003601f168201915b5050505050908060010160009054906101000a900467ffffffffffffffff16908060010160089054906101000a900461ffff16905083565b60606002805480602002602001604051908101604052809291908181526020018280548015611a4857602002820191906000526020600020905b815481526020019060010190808311611a34575b5050505050905090565b828054611a5e906125c2565b90600052602060002090601f016020900481019282611a805760008555611ac7565b82601f10611a9957805160ff1916838001178555611ac7565b82800160010185558215611ac7579182015b82811115611ac6578251825591602001919060010190611aab565b5b509050611ad49190611b18565b5090565b508054611ae4906125c2565b6000825580601f10611af65750611b15565b601f016020900490600052602060002090810190611b149190611b18565b5b50565b5b80821115611b31576000816000905550600101611b19565b5090565b6000611b48611b438461245e565b61242d565b905082815260208101848484011115611b6057600080fd5b611b6b848285612580565b509392505050565b600081359050611b82816126db565b92915050565b600082601f830112611b9957600080fd5b8135611ba9848260208601611b35565b91505092915050565b600081359050611bc1816126f2565b92915050565b600081359050611bd681612709565b92915050565b60008060408385031215611bef57600080fd5b6000611bfd85828601611b73565b9250506020611c0e85828601611bc7565b9150509250929050565b600060208284031215611c2a57600080fd5b6000611c3884828501611bc7565b91505092915050565b60008060008060008060c08789031215611c5a57600080fd5b6000611c6889828a01611bc7565b9650506020611c7989828a01611bc7565b9550506040611c8a89828a01611bb2565b945050606087013567ffffffffffffffff811115611ca757600080fd5b611cb389828a01611b88565b9350506080611cc489828a01611bb2565b92505060a0611cd589828a01611bc7565b9150509295509295509295565b600080600080600080600060e0888a031215611cfd57600080fd5b6000611d0b8a828b01611bc7565b9750506020611d1c8a828b01611bc7565b9650506040611d2d8a828b01611bc7565b9550506060611d3e8a828b01611bb2565b945050608088013567ffffffffffffffff811115611d5b57600080fd5b611d678a828b01611b88565b93505060a0611d788a828b01611bb2565b92505060c0611d898a828b01611bc7565b91505092959891949750929550565b6000611da4838361214b565b60208301905092915050565b611db981612522565b82525050565b6000611dca8261249e565b611dd481856124c1565b9350611ddf8361248e565b8060005b83811015611e10578151611df78882611d98565b9750611e02836124b4565b925050600181019050611de3565b5085935050505092915050565b6000611e28826124a9565b611e3281856124dd565b9350611e4281856020860161258f565b611e4b816126ca565b840191505092915050565b6000611e63601b836124dd565b91507f5265736f7572636520697320616c72656164792072656e7465642e00000000006000830152602082019050919050565b6000611ea36016836124dd565b91507f496e636f7272656374207265736f757263652049442e000000000000000000006000830152602082019050919050565b6000611ee36019836124dd565b91507f496e636f7272656374207061796d656e7420616d6f756e742e000000000000006000830152602082019050919050565b6000611f23601d836124dd565b91507f5265736f757263652069732063757272656e746c792072656e7465642e0000006000830152602082019050919050565b6000611f636020836124dd565b91507f5072696365206d7573742062652067726561746572207468616e207a65726f2e6000830152602082019050919050565b6000611fa36011836124dd565b91507f496e636f7272656374204350552049442e0000000000000000000000000000006000830152602082019050919050565b6000611fe36024836124dd565b91507f4661696c656420746f207472616e73666572207061796d656e7420746f206f7760008301527f6e65722e000000000000000000000000000000000000000000000000000000006020830152604082019050919050565b60006120496000836124d2565b9150600082019050919050565b60006120636017836124dd565b91507f596f7520617265206e6f74207468652072656e7465722e0000000000000000006000830152602082019050919050565b60006120a36025836124dd565b91507f4f776e65722063616e6e6f742072656e74207468656972206f776e207265736f60008301527f757263652e0000000000000000000000000000000000000000000000000000006020830152604082019050919050565b60006121096011836124dd565b91507f496e636f7272656374204750552049442e0000000000000000000000000000006000830152602082019050919050565b61214581612534565b82525050565b61215481612562565b82525050565b61216381612562565b82525050565b6121728161256c565b82525050565b60006121838261203c565b9150819050919050565b600060208201905081810360008301526121a78184611dbf565b905092915050565b600060608201905081810360008301526121c98186611e1d565b90506121d86020830185612169565b6121e5604083018461213c565b949350505050565b6000602082019050818103600083015261220681611e56565b9050919050565b6000602082019050818103600083015261222681611e96565b9050919050565b6000602082019050818103600083015261224681611ed6565b9050919050565b6000602082019050818103600083015261226681611f16565b9050919050565b6000602082019050818103600083015261228681611f56565b9050919050565b600060208201905081810360008301526122a681611f96565b9050919050565b600060208201905081810360008301526122c681611fd6565b9050919050565b600060208201905081810360008301526122e681612056565b9050919050565b6000602082019050818103600083015261230681612096565b9050919050565b60006020820190508181036000830152612326816120fc565b9050919050565b6000602082019050612342600083018461215a565b92915050565b600060408201905061235d600083018561215a565b61236a6020830184611db0565b9392505050565b6000606082019050612386600083018661215a565b612393602083018561215a565b6123a06040830184611db0565b949350505050565b6000610100820190506123be600083018b61215a565b6123cb602083018a61215a565b6123d8604083018961213c565b81810360608301526123ea8188611e1d565b90506123f9608083018761213c565b61240660a083018661215a565b61241360c0830185611db0565b61242060e0830184611db0565b9998505050505050505050565b6000604051905081810181811067ffffffffffffffff821117156124545761245361269b565b5b8060405250919050565b600067ffffffffffffffff8211156124795761247861269b565b5b601f19601f8301169050602081019050919050565b6000819050602082019050919050565b600081519050919050565b600081519050919050565b6000602082019050919050565b600082825260208201905092915050565b600081905092915050565b600082825260208201905092915050565b60006124f982612562565b915061250483612562565b9250828210156125175761251661263d565b5b828203905092915050565b600061252d82612542565b9050919050565b600061ffff82169050919050565b600073ffffffffffffffffffffffffffffffffffffffff82169050919050565b6000819050919050565b600067ffffffffffffffff82169050919050565b82818337600083830152505050565b60005b838110156125ad578082015181840152602081019050612592565b838111156125bc576000848401525b50505050565b600060028204905060018216806125da57607f821691505b602082108114156125ee576125ed61266c565b5b50919050565b60006125ff82612562565b91507fffffffffffffffffffffffffffffffffffffffffffffffffffffffffffffffff8214156126325761263161263d565b5b600182019050919050565b7f4e487b7100000000000000000000000000000000000000000000000000000000600052601160045260246000fd5b7f4e487b7100000000000000000000000000000000000000000000000000000000600052602260045260246000fd5b7f4e487b7100000000000000000000000000000000000000000000000000000000600052604160045260246000fd5b6000601f19601f8301169050919050565b6126e481612522565b81146126ef57600080fd5b50565b6126fb81612534565b811461270657600080fd5b50565b61271281612562565b811461271d57600080fd5b5056fea26469706673582212209135032b38fa65a4ae4725ddfdee281a4bae86cf6788076bd59db2a359bc612964736f6c63430008000033",
  "immutableReferences": {},
  "source": "// SPDX-License-Identifier: MIT\r\npragma solidity ^0.8.0;\r\n\r\ncontract Marketplace {\r\n    struct Resource {\r\n        uint256 cpuId;\r\n        uint256 gpuId;\r\n        uint16 ramSize;\r\n        string storageType;\r\n        uint16 storageSize;\r\n        uint256 price;\r\n        address renter;\r\n        address owner;\r\n    }\r\n    struct CPU {\r\n        string name;\r\n        uint64 frequency;\r\n        uint16 coreNum;\r\n    }\r\n    struct GPU {\r\n        string name;\r\n        uint64 frequency;\r\n        uint16 memorySize;\r\n    }\r\n\r\n    uint256 public resourcesCount = 0;\r\n    mapping(uint256 => Resource) public resources;\r\n    uint256[] public resourceIds;\r\n    CPU[] public cpus;\r\n    GPU[] public gpus;\r\n    mapping(address => uint256[]) public rentersResources;\r\n    mapping(address => uint256[]) public ownersResources;\r\n\r\n    constructor() {\r\n        cpus.push(CPU(\"Intel Core i9-11900K\", 3500000000, 8));\r\n        cpus.push(CPU(\"AMD Ryzen 9 5900X\", 3700000000, 12));\r\n        cpus.push(CPU(\"Intel Core i7-11700K\", 3600000000, 8));\r\n        cpus.push(CPU(\"AMD Ryzen 7 5800X\", 3800000000, 8));\r\n        cpus.push(CPU(\"Apple M1 Max\", 3200000000, 10));\r\n\r\n        gpus.push(GPU(\"NVIDIA RTX 3090\", 1400000000, 24000));\r\n        gpus.push(GPU(\"AMD Radeon RX 6900 XT\", 1825000000, 16000));\r\n        gpus.push(GPU(\"NVIDIA RTX 3080\", 1710000000, 10000));\r\n        gpus.push(GPU(\"AMD Radeon RX 6800 XT\", 2015000000, 16000));\r\n        gpus.push(GPU(\"NVIDIA RTX 3070\", 1500000000, 8000));\r\n    }\r\n\r\n    event ResourceCreated(uint256 resourceId, uint256 price, address owner);\r\n    event ResourceChanged(uint256 resourceId, uint256 price, address owner);\r\n    event ResourceDeleted(uint256 resourceId, uint256 price, address owner);\r\n    event ResourceRented(uint256 resourceId, uint256 price,  address renter);\r\n    event RentCancelled(uint256 resourceId, address renter);\r\n\r\n    function createResource (\r\n        uint256 cpuId_,\r\n        uint256 gpuId_,\r\n        uint16 ramSize_,\r\n        string memory storageType_,\r\n        uint16 storageSize_,\r\n        uint256 price_\r\n    ) public {\r\n        require(price_ > 0, \"Price must be greater than zero.\");\r\n        require(cpuId_ >= 0 && cpuId_ < cpus.length, \"Incorrect CPU ID.\");\r\n        require(gpuId_ >= 0 && gpuId_ < gpus.length, \"Incorrect GPU ID.\");\r\n\r\n        resources[resourcesCount] = Resource({\r\n            cpuId: cpuId_,\r\n            gpuId: gpuId_,\r\n            ramSize: ramSize_,\r\n            storageType: storageType_,\r\n            storageSize: storageSize_,\r\n            price: price_,\r\n            renter: address(0),\r\n            owner: msg.sender\r\n        });\r\n        resourceIds.push(resourcesCount);\r\n\r\n        emit ResourceCreated (resourcesCount, price_, msg.sender);\r\n        resourcesCount++;\r\n    }\r\n\r\n    function changeResource (\r\n        uint256 resourceId_,\r\n        uint256 cpuId_,\r\n        uint256 gpuId_,\r\n        uint16 ramSize_,\r\n        string memory storageType_,\r\n        uint16 storageSize_,\r\n        uint256 price_\r\n    ) public {\r\n        require(resources[resourceId_].owner != address(0), \"Incorrect resource ID.\");\r\n        require(resources[resourceId_].renter == address(0), \"Resource is currently rented.\");\r\n        require(price_ > 0, \"Price must be greater than zero.\");\r\n        require(cpuId_ < cpus.length, \"Incorrect CPU ID.\");\r\n        require(gpuId_ < gpus.length, \"Incorrect GPU ID.\");\r\n\r\n        resources[resourceId_] = Resource({\r\n            cpuId: cpuId_,\r\n            gpuId: gpuId_,\r\n            ramSize: ramSize_,\r\n            storageType: storageType_,\r\n            storageSize: storageSize_,\r\n            price: price_,\r\n            renter: address(0),\r\n            owner: msg.sender\r\n        });\r\n\r\n        emit ResourceChanged(resourceId_, price_, msg.sender);\r\n    }\r\n\r\n    function deleteResource(uint256 resourceId_) public {\r\n        require(resources[resourceId_].owner != address(0), \"Incorrect resource ID.\");\r\n        require(resources[resourceId_].renter == address(0), \"Resource is currently rented.\");\r\n        \r\n        uint256 price = resources[resourceId_].price;\r\n        address owner = resources[resourceId_].owner;\r\n        delete resources[resourceId_];\r\n        for (uint256 i = 0; i < resourceIds.length; i++) {\r\n            if (resourceIds[i] == resourceId_) {\r\n                resourceIds[i] = resourceIds[resourceIds.length - 1];\r\n                resourceIds.pop();\r\n                break;\r\n            }\r\n        }\r\n        \r\n        emit ResourceDeleted(resourceId_, price, owner);\r\n    }\r\n\r\n    function getResource(uint256 resourceId_) public view returns (\r\n        uint256 cpuId,\r\n        uint256 gpuId,\r\n        uint16 ramSize,\r\n        string memory storageType,\r\n        uint16 storageSize,\r\n        uint256 price_,\r\n        address renter,\r\n        address owner\r\n    ) {\r\n        require(resources[resourceId_].owner != address(0), \"Incorrect resource ID.\");\r\n        \r\n        Resource storage resource = resources[resourceId_];\r\n        \r\n        return (\r\n            resource.cpuId,\r\n            resource.gpuId,\r\n            resource.ramSize,\r\n            resource.storageType,\r\n            resource.storageSize,\r\n            resource.price,\r\n            resource.renter,\r\n            resource.owner\r\n        );\r\n    }\r\n\r\n    function getResourceIds() public view returns (uint256[] memory) {\r\n        return resourceIds;\r\n    }\r\n\r\n    function getResourceNum() public view returns (uint256) {\r\n        return resourceIds.length;\r\n    }\r\n\r\n    function rentResource(uint256 resourceId_) public payable {\r\n        require(resources[resourceId_].owner != address(0), \"Incorrect resource ID.\");\r\n        require(resources[resourceId_].renter == address(0), \"Resource is already rented.\");\r\n        require(resources[resourceId_].owner != msg.sender, \"Owner cannot rent their own resource.\");\r\n        require(resources[resourceId_].price == msg.value, \"Incorrect payment amount.\");\r\n        \r\n        (bool sent, ) = payable(resources[resourceId_].owner).call{value: msg.value}(\"\");\r\n        require(sent, \"Failed to transfer payment to owner.\");\r\n        \r\n        resources[resourceId_].renter = msg.sender;\r\n        \r\n        emit ResourceRented(resourceId_, msg.value, msg.sender);\r\n    }\r\n\r\n\r\n    function cancelRent(uint256 resourceId_) public {\r\n        require(resources[resourceId_].owner != address(0), \"Incorrect resource ID.\");\r\n        require(resources[resourceId_].renter == msg.sender, \"You are not the renter.\");\r\n        \r\n        resources[resourceId_].renter = address(0);\r\n        emit RentCancelled(resourceId_, msg.sender);\r\n    }\r\n}\r\n",
  "sourcePath": "D:\\Files\\blockchain project\\contracts\\Marketplace.sol",
  "compiler": {
    "name": "solc",
    "version": "0.8.0+commit.c7dfd78e.Emscripten.clang"
  },
  "schemaVersion": "3.4.16",
  "updatedAt": "2024-10-18T10:05:59.736Z",
  "networkType": "ethereum",
  "devdoc": {
    "kind": "dev",
    "methods": {},
    "version": 1
  },
  "userdoc": {
    "kind": "user",
    "methods": {},
    "version": 1
  }
}